:020000040800F2
:10000000C810002005010008E3260008412300086D
:10001000E126000839030008C3440008000000007E
:10002000000000000000000000000000E7290008B8
:10003000DD03000800000000E5290008E9290008A8
:100040001F0100081F0100081F0100081F01000810
:100050001F0100081F0100081F0100081F01000800
:100060001F0100081F0100081F01000849030008C4
:100070001F010008550300081F0100081F010008A8
:100080001F0100081F010008ED0100081F01000802
:10009000514400081F0100081F0100081F0100084B
:1000A0001F0100081F0100081F0100081F010008B0
:1000B0001F0100081F0100081F0100081F010008A0
:1000C0001F0100081F0100081F0100081F01000890
:1000D0001F0100081F0100081F010008952D0008DE
:1000E0001F0100081F0100081F010008DFF810D0E1
:1000F00000F03EF80048004705450008AFF30080D7
:10010000C81000200648804706480047FEE7FEE783
:10011000FEE7FEE7FEE7FEE7FEE7FEE7FEE7FEE7B7
:10012000692A0008ED00000840EA01039B0703D09C
:1001300009E008C9121F08C0042AFAD203E011F826
:10014000013B00F8013B521EF9D27047D2B201E0E8
:1001500000F8012B491EFBD270470022F6E710B5CC
:1001600013460A4604461946FFF7F0FF204610BD25
:10017000064C074D06E0E06840F0010394E80700F4
:1001800098471034AC42F6D3FFF7B4FFB0460008EE
:10019000D046000870B58C1810F8015B15F0070305
:1001A00001D110F8013B2A1106D110F8012B03E010
:1001B00010F8016B01F8016B5B1EF9D12B0705D418
:1001C0000023521E0DD401F8013BFAE710F8013B61
:1001D000CB1A921C03E013F8015B01F8015B521E7D
:1001E000F9D5A142D8D3002070BD0000014800F02D
:1001F0007AB900004403002070B5044600688168A5
:10020000C943C90716D1816821F00101816000F05E
:10021000BDFD054609E000F0B9FD401B022804D9E8
:1002200020688068C043C00706D020688068C0434B
:10023000C007F0D0002070BDA06A40F01000A0629E
:10024000E06A40F00100E062012070BD10B5014697
:10025000406A826A12F0500F05D0006A026BBDE856
:10026000104008461047816A41F4007181620168BC
:100270008968C1F3424107290CD1017B51B9816AD8
:1002800021F480718162816AC90403D4816A41F0DA
:100290000101816200F024F910BD10B5406A816A45
:1002A00041F040018162C16A41F00401C16200F085
:1002B00019F910BD10B5406A00F013F910BD000027
:1002C000F8B500260446009600688168C943C9074E
:1002D0002CD0816841F00101816015481549006802
:1002E000B0FBF1F000E0401E00900028FBD100F0D0
:1002F0004DFD054615E000F049FD401B022810D9D0
:1003000020688068C043C0070BD0A06A40F010008E
:10031000A062E06A40F00100E06284F824600120FD
:10032000F8BD20688068C043C007E4D10020F8BD54
:100330005402002040420F00FEE7002070470020DA
:100340007047002070470000014800F015BB000016
:1003500074030020014800F00FBB0000400400209F
:1003600030B590F840500124AC40C56B6C60046817
:1003700063604368102B036803D099600068C26013
:1003800030BD9A600068C16030BDC17B027C837B58
:1003900001EB4201427C920002EBC3021144C9B25C
:1003A0000D2919D2DFE801F01807090B0D180F18F5
:1003B00011131818150000210CE002210AE0012198
:1003C00008E0042106E0032104E0062102E0072101
:1003D00000E00521817470470821FBE7704772B681
:1003E000FEE77047F8B50023009390F824201C46E0
:1003F000012A12D0012280F824204A681F26072AE9
:100400000DD205686F6B521E02EB82029640B74315
:100410000E68964037436F6319E00220F8BD056807
:100420000D2A0AD22F6BD21F02EB82029640B743ED
:100430000E68964037432F6309E0EF6A0D3A02EBEE
:1004400082029640B7430E6896403743EF620A68CF
:10045000072605680A2A0AD3EF680A3A02EB420225
:100460009640B7438E6896403743EF6008E02F69A7
:1004700002EB42029640B7438E68964037432F61A5
:100480000A68102A01D0112A20D1124D0268AA420E
:1004900017D195682D0219D4956845F4000595602B
:1004A0000968102912D10C490C4A0968B1FBF2F114
:1004B00001EB8101490000E0491E00910029FBD1B8
:1004C00004E0816A41F020018162012380F8244028
:1004D0001846F8BD002401405402002040420F009D
:1004E00070477047704710B5044600684168890638
:1004F00026D50168890723D5A16AC90603D4A16A54
:1005000041F40071A1628168C1F34241072910D111
:10051000217B71B9416821F020014160A06A20F47B
:100520008070A062A06AC00403D4A06A40F00100F9
:10053000A0622046FFF7D4FF21686FF01200086028
:100540002068416809062ED5016849072BD5A16AA4
:10055000C90603D4A16A41F40051A1628168C1F3C4
:100560000231072909D04168490515D48168C1F3D2
:100570004241072910D1217B71B9416821F08001E6
:100580004160A06A20F48050A062A06AC00503D434
:10059000A06A40F00100A0622046FFF722FF216818
:1005A0006FF00C0008602068416849060DD50068AE
:1005B000C0070AD0A06A40F48030A062204600F054
:1005C00093F821686FF00100086010BD2DE9F0413B
:1005D0004FF00006040035467DD0A06A002728B9F8
:1005E000E76284F82470204600F080F82046FFF788
:1005F00003FEA16AC90600D420B1A06A40F0100031
:10060000A06268E0A16A21F4885141F00201A16270
:100610006268E169237B0A4346EA43010A43A16811
:100620004FF48076B14208D0012906D0002194F819
:1006300014C0BCF1010F02D00AE03146F7E7F3B174
:10064000A36A43F02003A362E36A43F00103E36279
:100650002368D3F804C02CF4694C4CEA010CC3F8AD
:1006600004C021688B68DFF874C003EA0C031343ED
:100670008B60A168B1420BD0012909D00CE0DFF8F2
:1006800060C0A3690CEB43330B4343F40061DFE725
:10069000218A0D05A5F580152168CB6A23F4700326
:1006A0002B43CB62216889680E4B1940914208D1D7
:1006B000E762A16A21F0020141F00101A162BDE8F7
:1006C000F081A06A20F0020040F01000A062E06A11
:1006D00040F00100E0620120F1E70000FDF7E1FFDA
:1006E00000E0FFFFFE0E1FFF7047000070B586B0F0
:1006F00000240646009401940294039400681E4965
:10070000884236D11D49886940F400708861886943
:1007100000F400700490886940F0040088618869E2
:10072000694600F004000490DE2000900320019050
:10073000134800F033FA144D1248C5E90004802034
:10074000C5E9024040002861800068612020C5E9B9
:100750000604284600F0BCF908B1FFF740FE3562F8
:100760000022022112206E6200F07CFB122000F0B9
:100770006BFB06B070BD0000002401400010024079
:100780000008014008000240740300202DE9F047F2
:10079000894604463B4900683B4F0E1D90468842FF
:1007A00001D0B84207D1306810F4702F03D0012572
:1007B0002846BDE8F08794F8240001280CD00120D9
:1007C00084F824002046FFF77BFD05004FF0000170
:1007D00004D084F82410EBE70220EAE7A06A40F690
:1007E0000162904340F48070A0622068B84218D142
:1007F000326812F4702F14D0A06A40F48010A06206
:100800003068400505D5A06A20F4005040F48050BF
:10081000A062A06AC0040AD5E06A20F00600E06287
:1008200006E0A26A22F48012A2624068E9E7E1626F
:1008300084F82410216A15488862216A1448C86225
:10084000216A1448086321686FF00200086020687C
:10085000816841F480718160216843464A464C3189
:10086000206A00F063F920688168C1F342410729DA
:10087000816803D041F48011816099E741F4A001BF
:10088000FAE7000000240140002801404D02000862
:10089000B50200089B02000810B590F82110002254
:1008A000022905D00421816380F82020012010BD99
:1008B00001680B6823F00E030B6001680B6823F0DE
:1008C00001030B6090F84030012404FA03F1C36B7C
:1008D000596080F8214080F82020104610BD0000AB
:1008E00010B590F821100024022903D0042181635F
:1008F00001243DE001680A6822F00E020A600168E6
:100900000A6822F001020A601A4A0168914201D184
:10091000012121E0174A1432914201D110211BE03C
:10092000144A2832914201D1891515E0114A3C320E
:10093000914201D189140FE00E4A5032914202D106
:100940004FF4803108E00B4A6432914202D14FF4F7
:10095000801101E04FF08071064A083A5160012190
:1009600080F82110002180F82010416B01B18847E8
:10097000204610BD080002402DE9F05FC16B0B68F6
:1009800001680A68046C4FF0040C0CFA04FC4A4D30
:10099000DFF828A14A4E4B4FDFF82CB1DFF82CE1ED
:1009A0001CEA030F2DD05FEA427C2AD50A68920622
:1009B00003D40A6822F004020A600168A94201D146
:1009C000042119E0514501D1402115E0B14202D185
:1009D0004FF4806110E0B94202D14FF480410BE046
:1009E000594502D14FF4802106E0714502D14FF400
:1009F000800101E04FF080612F4A083A5160C16ADE
:100A00003BE04FF0020808FA04F818EA030F4FF031
:100A100000094FF0010C35D05FEA827832D50A68C0
:100A2000920605D40A6822F00A020A6080F821C002
:100A30000168A94201D1022119E0514501D12021CB
:100A400015E0B14202D14FF4007110E0B94202D179
:100A50004FF400510BE0594502D14FF4003106E04C
:100A6000714502D14FF4001101E04FF00071124ABC
:100A7000083A516080F82090816A00291AD0BDE8B8
:100A8000F05F08470825A5401D4213D0120711D575
:100A90000A6822F00E020A6090F84010C26B0CFA4D
:100AA00001F15160C0F838C080F821C080F8209072
:100AB000016BE2E7BDE8F09F080002401C00024025
:100AC0003000024044000240580002406C000240E6
:100AD00030B528B302C8134A14230A44B2FBF3F218
:100AE0009200C263104A8263022242770B6843F687
:100AF000F0729343D0E900242243D0E902452C430D
:100B000022430469224344692243846922431A43ED
:100B10000A6000214163012242770177084630BD17
:100B2000012030BDF8FFFDBF0000024070B5044653
:100B300090F82000002501280CD0012084F8200026
:100B400094F821600020012E06D084F820000225B0
:100B5000284670BD022070BD022684F82160A06383
:100B60002068066826F0010606602046FFF7F8FBBD
:100B7000E06A00282068016802D041F00E0106E01A
:100B800021F0040101602068016841F00A01016060
:100B90002068016841F001010160D9E72DE9F84FB3
:100BA000DFF8A491002409F1040A0AF1040B23469A
:100BB0004FF00F080BF1040EBEE00127A7403A40AA
:100BC000BA4272D1DFF884C14D68A5EB0C066545C9
:100BD0002BD00DDC032D34D005DC35B3012D19D01D
:100BE000022D2FD11BE0112D16D0122D2AD119E084
:100BF000B6F5881F19D006DCB6F5803F15D0B6F5DE
:100C0000801F1FD111E0B6F5001F0ED0B6F5041FEE
:100C100018D10AE0CB6815E0CB681B1D12E0CB6849
:100C200008330FE0CB680C330CE08B682BB1012B41
:100C30004FF0080303D0476104E0042302E007619A
:100C400000E00023FF2A01D8064601E000F1040677
:100C50004FEA840501D9A5F12005376808FA05FC9B
:100C600027EA0C0703FA05F547EA050737604D68E0
:100C7000ED0060D5364DAE6946F00106AE61AD6956
:100C800024F0030605F001050095324D7719BE6882
:100C9000A5072D0F08FA05FC26EA0C06DFF8B8C0F8
:100CA000604503D14FF0000C17E044E0DFF8ACC022
:100CB000604502D14FF0010C0FE0DFF8A4C06045A1
:100CC00002D14FF0020C08E0DFF898C0604502D175
:100CD0004FF0030C01E04FF0040C0CFA05FC4CEA59
:100CE000060CC7F808C04D68D9F80060ED034D4602
:100CF00001D5164300E096432E604D68DAF8006097
:100D0000AD03554601D5164300E096432E604D686D
:100D1000DBF80060ED025D4601D5164300E0964326
:100D20002E604D68DEF80060AD02754601D51643B1
:100D300000E096432E60641C0A6832FA04F57FF4E2
:100D40003CAFBDE8F88F0000000401400000111026
:100D5000001002400000014000080140000C01406A
:100D600000100140001401408068084000D00120BC
:100D70007047C26821EA02030A4043EA0241016166
:100D800070470AB1016170470904FBE701488068B8
:100D90007047000048020020024881680278114430
:100DA0008160704748020020074810B5016841F093
:100DB00010010160032000F075F8002000F006F833
:100DC00000F024F8002010BD0020024070B50D4D49
:100DD00004464FF47A712878B1FBF0F00A490968AB
:100DE000B1FBF0F001F022F848B9102C07D2002234
:100DF0002146501E00F036F800206C6070BD0120C6
:100E000070BD000048020020540200200C4808B5C4
:100E1000816941F001018161816901F00101009165
:100E2000C16941F08051C161C069064900F080503C
:100E30000090486820F0E06040F00070486008BD15
:100E40000010024000000140002809DB00F01F02F2
:100E5000012191404009800000F1E020C0F800111C
:100E600070470000F0B40E4B1B68C3F30223C3F1BC
:100E70000704042C00D904241D1D072D01D20023D2
:100E800000E0DB1E012606FA04F56D1E0D409D40B4
:100E90009E40761E164045EA0601F0BC03F012BBE8
:100EA0000CED00E0064A00F0070110684FF6FF0362
:100EB000184040EA012003490843106070470000D1
:100EC0000CED00E00000FA0510B50C0607D501F0A6
:100ED000070101EB810100EBC100283005E001EBC7
:100EE000810100EBC10000F5B47099B232B101226A
:100EF00002730181190C4181002010BD0022027390
:100F0000C180F9E7704701EB810200EBC202D0F823
:100F1000E802D26B02F0F9B901EB810200EBC202E8
:100F2000D0F8E802D2F87C2102F052BA70B504463B
:100F30000B0601F0070000EB800104EBC1014FF04C
:100F400001024FF0000503D581F82920283103E084
:100F500081F8695101F5B471087094F8A80201286C
:100F600008D084F8A822206802F073FE84F8A85202
:100F7000002070BD022070BD70B5044601F00F0066
:100F80006268904201D9012070BD0B0601F0070094
:100F900000EB800104EBC1014FF001024FF00005AE
:100FA00003D581F82920283103E081F8695101F542
:100FB000B4718D70087094F8A802012808D084F8E4
:100FC000A822206802F0E3FE84F8A852002070BD39
:100FD000022070BD2DE9F05F046857040B788D691D
:100FE000B4F850704FF000064BF68F7948F2800A43
:100FF00048F68F7B48F2C00E4FF480682AD54FF038
:10100000020C0CEBC30C674408EB4707E45BC4F32A
:101010000904A54203D32D1B8D6101D00BE08E6125
:10102000056835F8236006EA090686F4005646EAA4
:101030000A0625F82360520609D50A78036833F8B2
:10104000225005EA0B0545EA0E0523F8225084B329
:101050000A8929E04FF0060C0CEBC30C674408EB3F
:101060004707E45BC4F30904A54203D32D1B8D613C
:1010700001D00BE08E61056835F8236006EA0906A9
:1010800086F4005646EA0A0625F82360520609D47B
:101090000B78026832F8235005EA0B0545EA0E0585
:1010A00022F823502CB14A8949690068234603F08D
:1010B000D8F92046BDE8F09F2DE9F05F05460068AD
:1010C0000C465FEA426C8B6916460978B0F850C04E
:1010D00048F68F774CF280094FF6FF7B4FF4004EB5
:1010E0004FF4806A4FF0000275D54FF0020808EB0C
:1010F000C108E0440AEB480C30F80C00C0F30900CA
:10110000834211D91B1AA3610FD0730407D52B6832
:1011100033F821603E4046EA090623F8216094F83E
:101120002410012949D04CE1A261607810B1012856
:1011300013D01AE02868B0F85030184400EB0110C2
:10114000B0F8041421F4F841A0F80414B0F8041421
:1011500041F40041A0F8041407E02868B0F85030CA
:10116000184400EB0110A0F804246178286811B13C
:10117000012913D01AE0B0F850100844217800EB90
:101180000110B0F80C1421F4F841A0F80C14B0F8D8
:101190000C1441F40041A0F80C1407E0B0F8501012
:1011A0000844217800EB0110A0F80C24217828468F
:1011B000FFF7A9FE70047CD403E161690144616119
:1011C000E1690144E1612369216A994204D3184627
:1011D000091A216205E038E084F8242009B10846A4
:1011E0002262617811B1012923D02BE02968B1F87E
:1011F00050201144227801EB021101F2044148B160
:101200003E280FD84208C30700D0521C0BEA8222A6
:101210000A8017E00A8822F4F8420A800A8842F419
:101220000042F5E74209C30600D1521E4EEA82226F
:10123000EEE72968B1F850201144227801EB021141
:10124000A1F8040483B22289B7E04FF0060808EB46
:10125000C108E0440AEB480C30F80C00C0F3090068
:10126000834211D31B1AA3610FD0730407D42B68D8
:1012700033F821603E4046EA090623F8216094F8DD
:101280002410012954D09CE0A261607810B101289B
:1012900015D01CE02868B0F85030184400EB01105D
:1012A000B0F8041421F4F841A0F80414B0F80414C0
:1012B00000E033E041F40041A0F8041407E028689E
:1012C000B0F85030184400EB0110A0F80424617805
:1012D000286811B1012913D01AE0B0F85010084461
:1012E000217800EB0110B0F80C1421F4F841A0F8BB
:1012F0000C14B0F80C1441F40041A0F80C1407E0F1
:10130000B0F850100844217800EB0110A0F80C242C
:1013100021782846FFF7F7FD700452D42178286819
:1013200030F821203A4042EA090220F8212048E022
:10133000616901446161E1690144E1612369216AF4
:10134000994203D31846091A216204E009B10846FC
:10135000226284F824206278296812B1012A22D0FE
:1013600029E0B1F850201144227801EB021101F27A
:101370000C4148B13E280FD84208C30700D0521C88
:101380000BEA82220A8016E00A8822F4F8420A80D8
:101390000A8842F40042F5E74209C30600D1521E12
:1013A0004EEA8222EEE7B1F850201144227801EB98
:1013B0000211A1F80C04628983B26169286803F004
:1013C0006DF82178286830F8212048F6BF731A405C
:1013D00082F0300248F280031A4320F821200020D6
:1013E000BDE8F09F2DE9F04104460F0601F007002B
:1013F00000EB800104EBC1014FF001064FF0000546
:1014000003D581F82960283103E081F8695101F59D
:10141000B47108700A61CB704A7802B1C881022B9E
:1014200000D10D7194F8A802012809D084F8A862AF
:10143000206802F0D3FA284684F8A852BDE8F0816B
:101440000220FBE770B50D4601F0070404EB8401B0
:1014500000EBC101C1E95F230022C1F8842181F8BA
:10146000692181F8684101F5B4716A07006802F0EA
:10147000E1FC002070BD70B504460D4601F0070088
:101480006168884201D9012070BD29064FF000062D
:101490004FF0010207D500EB800104EBC10181F898
:1014A0002920283107E005EB850104EBC10181F813
:1014B000696101F5B4718A70087094F8A802012876
:1014C00007D084F8A822206802F09BFC680702D0AD
:1014D00006E0022070BD04F52C71206802F055FC76
:1014E00084F8A862002070BD70B50D4601F00704B5
:1014F00004EB840100EBC101C1E90F23012281F853
:101500004C208B6400234B6481F8292001F8284F7C
:101510006A07006802F08EFC002070BD1FB504460B
:10152000006802F09BFF000402D5204601F0DAF8C3
:10153000206802F093FF40050CD5206830F8441F66
:1015400021F480610180204600F01CF90021204632
:1015500000F033F9206802F081FF400405D52068CF
:1015600030F8441F21F480410180206802F076FFAA
:10157000800405D5206830F8441F21F40051018013
:10158000206802F06BFFC00414D5206830F8401FBB
:1015900021F004010180206830F8401F21F008018B
:1015A0000180204600F001F9206830F8441F21F442
:1015B00080510180206802F051FF00053ED521686E
:1015C00000206A4631F8203022F81030401CC0B2AA
:1015D0000828F7D331F8400F40F001000880206858
:1015E00030F8401F21F0010101802068B0F844105C
:1015F0004905FBD530F8441F21F4806101800020AB
:10160000236832F8101023F82010401CC0B20828BC
:10161000F6D3206830F8401F41F0080101802068AF
:1016200030F8441F21F400610180206830F8401F29
:1016300041F004010180204600F0F4F8206802F037
:101640000DFF800508D5206830F8441F21F4007193
:101650000180204600F0ADF8206802F0FFFEC005D2
:1016600005D5206830F8441F21F4807101801FBD2A
:101670002DE9F04186B0040004D094F8A9020025B9
:1016800020B108E0012006B0BDE8F08184F8A8523E
:10169000204600F059F8032084F8A902206802F0DF
:1016A0006DFB04F11001142288466846FEF73CFDEC
:1016B00094E80F0002F0CBFA0227C8BB0021206893
:1016C00002F0E4FE002101260EE001EB810004EBB4
:1016D000C00080F8296000F8281FC181C57005612D
:1016E0004561491CC9B2856160688842EDD8002116
:1016F00011E001EB810004EBC00080F8695180F833
:10170000681180F86B51C0F87851C0F87C51491CC1
:10171000C9B2C0F8805160688842EAD814224146B4
:101720006846FEF701FD94E80F0002F01EFB10B1C1
:1017300084F8A972A6E784F8245084F8A962206886
:1017400002F011FB00209EE708B500680B498842B3
:1017500012D10B48C16941F40001C161C069002286
:1017600000F40000009011461420FFF77BFBBDE859
:1017700008401420FFF768BB08BD0000005C004073
:101780000010024070B5044680680125022801D08F
:10179000FEF725FE2946D4F8E80201F0F6FED4F85B
:1017A000E802BDE8704001F0B2BED0F8E80201F0F6
:1017B000D6BED0F8E80201F0DCBE10B5044690F8C1
:1017C000A80201280BD0012084F8A80284F8241074
:1017D000206802F05DFE002084F8A80210BD0220FF
:1017E00010BDD0F8E82200F52C71104601F0D9BEEA
:1017F00010B5044690F8A802012810D0012084F802
:10180000A802206802F01AFE01212046FFF77AFBA9
:10181000206802F0A6FA002084F8A80210BD022079
:1018200010BD000010B50446D0F8E80201F0F8FE43
:10183000A069002804D00348016841F00601016056
:1018400010BD000010ED00E02DE9F84304460078DB
:10185000344FC00752D0F8690025C00008D4F86999
:1018600040F08050F861F869012500F08050009048
:101870002D480168C90511D40168804641F4807182
:101880000160FFF783FA064604E0FFF77FFA801B4A
:10189000642822D8D8F80000C005F6D5386A10F4BC
:1018A000407020D0A18801F4407181421BD0386A79
:1018B0001E49012220F440700A6000220A6038624A
:1018C000C00710D0FFF762FA064641F2883807E0F9
:1018D000FFF75CFA811B414502D90320BDE8F8837C
:1018E000386A8007F4D5386A616820F4407008438C
:1018F00038621DB1F86920F08050F86120788007C7
:1019000005D57868A16820F44040084378602078C5
:10191000C00605D57868E16820F480000843786047
:101920000020DBE70010024000700040400442420B
:101930002DE9F0470D46040067D0DFF81881D8F88C
:10194000000000F00700A8420CD2D8F8001021F0E7
:1019500007012943C8F80010D8F8000000F007007C
:10196000A84252D120683C4E810712D5400703D5CA
:10197000706840F4E06070602078000703D57068FC
:1019800040F4605070607068A16820F0F000084377
:1019900070602078C00727D06068012810D03168B7
:1019A000022810D0890700292FDA716821F003017D
:1019B00001437160FFF7EAF9074641F288390CE00C
:1019C00031688903EFE78901EDE7FFF7DFF9C11B14
:1019D000494502D90320BDE8F0877068616800F0CE
:1019E0000C00B0EB810FF0D1D8F80010404601F0A8
:1019F0000701A9420BD9016821F0070129430160C1
:101A0000006800F00700A84201D00120E3E7207839
:101A1000400705D57068E16820F4E0600843706015
:101A20002078000706D57068216920F4605040EAEC
:101A3000C100706000F038F87168084AC1F3031102
:101A4000515CC8400649086006480068FFF7BEF9C7
:101A50000020C0E700200240001002409846000825
:101A6000540200204C0200200448054900684968DF
:101A7000044AC1F30221515CC8407047540200205F
:101A800000100240A846000804480549006849685B
:101A9000044AC1F3C221515CC8407047540200207F
:101AA00000100240A846000812A085B00FC88DE8BB
:101AB0000F0014A0144B006804905968134801F0FB
:101AC0000C02042A10D0082A0ED1C1F38342C903A4
:101AD0001DF802000AD5596804AAC1F34041515CBF
:101AE0000A4A5043B0FBF1F005B07047084948433B
:101AF000FAE7000002030405060708090A0B0C0DAB
:101B00000E0F1010010200000010024000127A00B7
:101B100000093D002DE9F84F04006FD02078BE4D3C
:101B2000C00747D06868C0F38100012807D0686803
:101B3000C0F38100022809D16868C00306D528686F
:101B4000800337D560680028E7D033E06068B0F5DF
:101B5000803F0BD010B1B0F5A02F11D0286820F431
:101B600080302860286820F4802002E0286840F453
:101B700080302860606888B1FFF708F9064609E000
:101B8000286840F480202860F0E7FFF7FFF8801B0A
:101B9000642873D828688003F7D50BE0FFF7F6F8C0
:101BA000064604E0FFF7F2F8801B6428F1D82868A5
:101BB0008003F7D42078DFF8648280074FF0010AB1
:101BC0004FF0000939D5686810F00C0F07D068682D
:101BD000C0F38100022809D16868C00306D42868D0
:101BE000800714D52069012808D110E02069B0B120
:101BF000C8F800A0FFF7CAF8064605E007E1FFF7BE
:101C0000C5F8801B0228C4D828688007F7D5286843
:101C1000616920F0F80040EAC10028600DE0C8F8D2
:101C20000090FFF7B3F8064604E0FFF7AFF8801B1B
:101C3000022823D828688007F7D4207800072CD5FD
:101C40007748A169D9B1C0F800A0FFF79FF8064610
:101C500004E0FFF79BF8801B02280FD8686A800712
:101C6000F7D570484FF4FA510068B0FBF1F00090DE
:101C700000BF0098411E0091FAD20EE07CE0C0F84F
:101C80000090FFF783F8064604E0FFF77FF8801B1B
:101C9000022871D8686A8007F7D4207840075BD59E
:101CA000E8690027C00008D4E86940F08050E86186
:101CB000E869012700F0805000905B480168C90581
:101CC00011D40168834641F480710160FFF75EF82A
:101CD000064604E0FFF75AF8801B64284CD8DBF86E
:101CE0000000C005F6D5E06801280AD008B1052833
:101CF00013D0286A20F001002862286A20F004002E
:101D000002E0286A40F001002862E06841F2883B66
:101D100088B1FFF73BF8064609E0286A40F0040066
:101D20002862EEE7FFF732F8811B59455BD8286A35
:101D30008007F7D50BE0FFF729F8064604E0FFF728
:101D400025F8811B59454ED8286A8007F7D41FB162
:101D5000E86920F08050E861E069A8B36968C1F3E0
:101D60008101022946D00228484606D0C8F8600002
:101D7000FFF70CF8044639E035E04746C8F8600044
:101D8000FFF704F8064604E0FFF700F8801B02287E
:101D900029D828688001F7D4206AB0F5803F05D1A2
:101DA0006868A16820F4003008436860D4E908013D
:101DB0000843696821F4741108436860C7F860A09B
:101DC000FEF7E4FF044605E023E0FEF7DFFF001B1B
:101DD000022808D828688001F7D51AE0FEF7D6FF58
:101DE000001B022802D90320BDE8F88F2868800173
:101DF000F4D40EE00128F7D06868226A00F480313C
:101E0000914204D1616A00F47010884201D001202F
:101E1000EAE70020E8E7000000100240000042422C
:101E200080044242540200200070004010B5401E61
:101E3000B0F1807F01D3012010BD4FF0E02460613C
:101E40000F21601702F03EFB0020A06107202061F7
:101E5000002010BD70477047F8B50268044610684E
:101E6000D168536910F00F0F4FF0000553D003F005
:101E7000010601F4907737435FD0C20705D0CA0549
:101E800003D5226C42F001022264420705D5DA072D
:101E900003D0226C42F002022264820705D5DA07E1
:101EA00003D0226C42F004022264020707D501F03D
:101EB0002002324303D0226C42F008022264226CDA
:101EC000002A34D0800604D5880602D5204600F0CA
:101ED00077FE20684069216CC0F38010090700D4A8
:101EE00030B3204600F054FE2068416949061BD5F6
:101EF000416921F040014161A06BA8B1584941639B
:101F0000A06BFEF7EDFC002811D0A06B416B01B077
:101F1000BDE8F040084783060FD58B060DD5204657
:101F2000BDE8F84000F04CBE2046FFF794FFF8BD36
:101F30002046FFF790FF2564F8BD266B2023012E75
:101F400052D1C60650D5CE064ED5106850680090C6
:101F5000506940062AD5A16B086840680004000C4F
:101F6000EAD0A68D8642E7D9E0858869202818D076
:101F7000D06820F48070D0602068416921F00101B0
:101F800041612068416921F04001416184F83E309F
:101F900025632068C16821F01001C160A06BFEF7C5
:101FA0007BFCA08DE18D401A81B219E0A08DE18DFE
:101FB000401A81B2E08D0028BED00029BCD0D06884
:101FC00020F49070D0602068426922F001024261E2
:101FD00084F83E3025632068C26822F01002C26097
:101FE0002046FFF737FFF8BD05062BD50D0629D58E
:101FF00094F83D002128F6D1A068B0F5805F01D1AA
:102000002069B0B1206A411C2162216800784860D3
:10201000E08C401E0004000CE084E4D12068C1681C
:1020200021F08001C1602068C16841F04001C160B9
:10203000F8BD206A0088C0F308005060206A801C48
:102040002062E5E74006F3D54806F1D5D168204681
:1020500021F04001D16084F83D3000F070F9F8BD06
:10206000812B000870B5040004D094F83D000025D1
:1020700010B106E0012070BD84F83C50204600F00D
:1020800023F8242084F83D002068C16821F4005121
:10209000C160204600F0F0FD2068016921F4904104
:1020A00001612068416921F02A0141612068C1680D
:1020B00041F40051C1602564202084F83D0084F87B
:1020C0003E00002070BD0000F0B585B000240094F3
:1020D000019402940394064601683548334F022266
:1020E00003230515B94221D1816941F48041816101
:1020F000816901F480410491816941F004018161A9
:1021000080692C4E00F0040004901002CDE900021A
:10211000694603933046FEF741FDCDE90054694618
:1021200030460294FEF73AFD05B0F0BD224FB942A9
:10213000FAD1C16941F48021C161C16901F48021F2
:102140000491816941F0080181618069CDE9005203
:1021500000F00800CDE90330184D69462846FEF727
:102160001DFDE814CDE90004694628460294FEF7F7
:1021700015FD144D1248C5E900048020C5E9024050
:1021800020202C61C5E905402846EC61FEF7A0FC43
:1021900008B1FEF724F9B5630022114627206E62CC
:1021A000FEF760FE2720FEF74FFEBDE70038014036
:1021B000001002400008014000480040000C0140AF
:1021C00030000240400400202DE9F84F044690F80A
:1021D0003E00984615460E46202855D10EB305B34D
:1021E00094F83C0001284FD0012084F83C004FF0C7
:1021F0000009C4F84090222184F83E10C4F83090C1
:10220000FEF7C4FDA5858246E585A0684FF480579A
:10221000B84201D1206938B13546002684F83C9097
:1022200027E00120BDE8F88F0025F7E7534600229C
:1022300020212046CDF8008000F07AFD08B103206F
:10224000F0E725B1A068B8421BD038B108E020689B
:102250004068C0F3080026F8020B07E0206980B14F
:102260002068406800F07F0005F8010BE08D401EFB
:10227000E085E08D0028D9D1202084F83E000020A0
:10228000D0E720684068EFE70220CBE770472DE9F0
:10229000F843044690F83D001F4615460E46202898
:1022A0004BD1C6B1BDB194F83C00012845D0012006
:1022B00084F83C004FF00008C4F84080212084F8E6
:1022C0003D00FEF763FDA5848146E584A068B0F576
:1022D000805F03D004E00120BDE8F883206920B1CD
:1022E0003546002684F83C800EE00025FAE7802180
:1022F000204600F01DFDA0B9ADB115F8010B216815
:102300004860E08C401EE084E08C4B464FF00002B9
:1023100000970028EBD14FF04001204600F008FD67
:1023200030B10320D8E736F8020BC0F30800E6E727
:10233000202084F83D000020CEE70220CCE7704743
:10234000FEE7F0B500230A24302537261F4610E0AB
:10235000B4EB107F02D905EB107C01E006EB107C9A
:1023600001F813C001EB430C00015B1C8CF80170F9
:10237000DBB29342ECD3F0BD70B53F4D0821284647
:10238000FEF7F2FC00285DD000213C4C2846A173EA
:102390001021FEF7E9FC002856D00021E17320212E
:1023A0002846FEF7E1FC002850D00021217440218E
:1023B0002846FEF7D9FCE8B3002161744FF4805140
:1023C0002846FEF7D1FCB0B30021E1704FF4005174
:1023D0002846FEF7C9FC78B3002121704FF48041F4
:1023E0002846FEF7C1FC40B3002161704FF4004164
:1023F0002846FEF7B9FC78B30021214EA1702021B8
:102400003046FEF7B1FC40B3002121710121304676
:10241000FEF7AAFC50B30020607180212846FEF729
:10242000A3FC28B30021A1724FF400712846FEF7E7
:102430009BFC03E00CE00DE010E011E0D0B10020C7
:10244000E07270BD0121A0E70121A7E70121ADE7FE
:102450000121B2E70121B8E704E005E00121BCE772
:102460000121C2E70121C8E70121CEE70120D3E71E
:102470000121D8E70120E3E7000C0140980C00207F
:1024800000080140FEB500242A4800940194284920
:102490000294016089158160012606730475062582
:1024A00005614FF460214460C161FEF78FF808B107
:1024B000FDF795FF0096CDE9016469461D48FDF7DB
:1024C00091FF08B1FDF78BFF022000900190694653
:1024D0001848FDF787FF08B1FDF781FF0320009042
:1024E000019069461348FDF77DFF08B1FDF777FFBE
:1024F00004200090019069460E48FDF773FF08B173
:10250000FDF76DFF0520CDE9005069460948FDF74C
:1025100069FF08B1FDF763FF0720CDE900056946B3
:102520000448FDF75FFF002801D0FDF758FFFEBD0E
:1025300000240140440300200D4808B5416941F0E2
:10254000010141614069002200F001000090022178
:102550000B20FEF787FC0B20FEF776FC00221146CD
:102560000D20FEF77FFCBDE808400D20FEF76CBC97
:102570000010024070B586B00024244800940194F5
:1025800002940394816941F010018161816901F035
:1025900010010491816941F020018161816901F09C
:1025A00020010491816941F004018161816901F098
:1025B00004010491816941F0080181618069144E30
:1025C00000F008004FF46045049000222946304690
:1025D000FEF7D7FB0220CDE90240009501256946B0
:1025E00001953046FEF7DAFA48F221108DE8310005
:1025F00069460848FEF7D2FA4FF2F8308DE831000C
:1026000069460548FEF7CAFA06B070BD00100240E0
:102610000010014000080140000C01400C4810B5BA
:102620000A4901604FF47A314160002181600C2237
:10263000C160C0E904128161C161FFF713FD002888
:1026400003D0BDE81040FDF7CABE10BD0038014000
:10265000B80300200C4810B50A4901604FF47A31E4
:102660004160002181600C22C160C0E904128161D7
:10267000C161FFF7F7FC002803D0BDE81040FDF76B
:10268000AEBE10BD00480040FC03002010B5002283
:102690000F49104800F012FE08B1FDF7A0FE0E49E8
:1026A0000C4800F0E3FF08B1FDF799FE0B4909481B
:1026B00000F0FDFB08B1FDF792FE064801F02CF892
:1026C000002803D0BDE81040FDF789BE10BD000012
:1026D00014000020840400205C0200203802002046
:1026E000FEE7FEE72DE9F05F04464FF0060A4FF0E3
:1026F000020B4FF480696CE1B0F8441011F00F0642
:1027000039D030F826805FEA08417DD530F82610B0
:1027100040F68F72114041F0800120F8261006EB40
:10272000860004EBC00595F8740105F5B475002822
:102730006BD0E878022869D02978206830F8212009
:1027400048F68F731A4048F2C0031A4320F821203C
:102750002978206830F82120B0F8503052047DD517
:102760000BEBC1015A1809EB4201415A8F05BF0D0D
:1027700075D02A89D2E0C9062ED4018848F60F7296
:10278000114041F400410180206804F12805B0F8AF
:1027900050202B780BEBC3010A4409EB4201405A4D
:1027A000C0F309006064E16B0844E0630021204647
:1027B000FEF7A9FB94F8240000289CD0A869002803
:1027C00099D194F82400216840F08000A1F84C00D1
:1027D000002084F82400FCE0018804F5B4750A05A3
:1027E00021D5B0F850202B780AEBC3010A4409EB3D
:1027F0004201405A04F52C71C0F30903EB61EA88E9
:10280000206801F02EFE02E0A0E067E075E020689D
:10281000018840F68F72114041F08001018020460E
:10282000FEF7DFFFD5E00904D5D5018840F68F72A9
:10283000114041F0800101802068B0F850202B78D1
:102840000AEBC3010A4409EB4201405A83059B0D80
:10285000EB6110D0696971B1EA8801E054E052E09F
:10286000206801F0FEFDE96968690844686100219B
:102870002046FEF751FB2068018809052DD4B0F8E9
:1028800050100844296900F20C4051B13E2910D87B
:102890004A08C90700D0521C4FF6FF7101EA822195
:1028A0000FE0018821F4F8410180018841F40041E2
:1028B00007E04A09C90600D1521E4FF4004141EA1F
:1028C00082210180206801884BF68F72114081F4CB
:1028D000405148F28002114301807AE02068B0F84C
:1028E00050202B780AEBC3010A4409EB4201415AFC
:1028F0008F05BF0D16D0EA8810E0424629462046D3
:10290000FEF768FB07460DE00AEBC1015A1809EB18
:102910004201415A8F05BF0D04D06A893B4669695F
:1029200001F09FFDE8693844E861686938446861EE
:10293000A86910B12869B84204D929782046FEF761
:10294000EBFA03E02946206801F074FA5FEA0860B8
:102950003FD506EB860004EBC001206830F8262046
:1029600048F60F731A4042F4004220F8262091F8EE
:102970002B002831032805D020B1022825D15FEA99
:10298000C85022D42068B0F850300D780BEBC50247
:10299000134409EB4302805A8A69C0F3090082425A
:1029A0000CD9121A8A610BD04A6902444A61CA6979
:1029B0001044C861206801F03DFA0AE000208861F7
:1029C000E9B22046FEF79FFA03E042462046FEF7B2
:1029D00073FB2068B0F8441009043FF58DAE002069
:1029E000BDE8F09F70477047FEF7D6B930B593B099
:1029F00028216846FDF7B1FB14210AA8FDF7ADFBBD
:102A0000002401200F9410941194010412948DE875
:102A1000130004904FF4E010CDE90810022507954B
:102A20006846FFF777F808B172B6FEE70F20CDE9E8
:102A30000A054FF48060CDE90C4002210AA80E94EB
:102A4000FEF776FF08B172B6FEE712200F904FF442
:102A50000040CDE911040FA8FEF7F6FE002801D0D2
:102A600072B6FEE713B030BD70470000314A10B5B2
:102A70001070C87C5070087D9070487DD070887D43
:102A8000107108205071887C40F008005071CB789C
:102A900040EA031050718B7840EA431050714B7834
:102AA00040EA831050710B7840EAC3105071002047
:102AB0009071C87A90718B7A40EA430090714B7A9A
:102AC00040EA830090710B7A40EAC3009071CB79A1
:102AD00040EA031090718B7940EA431090714B7972
:102AE00040EA831090710B7940EAC3109071D0795D
:102AF0004B7B1843D0710B7B40EA4300D071087EBA
:102B00001072C87D5072087F10730B7F907F03F0A6
:102B10000F031843907792F8210091F82B1040EAA8
:102B2000011082F8210040220249034800F0C7F951
:102B3000012010BD580C00208404002000210170E9
:102B400041708170C170082282740171417181717C
:102B5000C171017241728172C172017341737F222E
:102B6000C274027542758275C17501760B210177B9
:102B7000102180F82B100148007870472E030020A8
:102B800010B5406A0021C185C184FFF764F910BD0A
:102B90000168CA6822F49072CA6001684A6922F02A
:102BA00001024A61016B012904D10168CA6822F05F
:102BB0001002CA60202180F83E1000210163704796
:102BC00008B590F83E10222901D0022008BD816886
:102BD0004FF48053994201D1026922B1826A99422D
:102BE0001BD049B10AE00268816A5268C2F3080248
:102BF0000A80816A891C08E0016971B1016849682D
:102C000001F07F011170816A491C8162C18D491EEA
:102C10000904090CC18503D019E001684968F1E78E
:102C20000168CA6822F02002CA600168CA6822F4FA
:102C30008072CA6001684A6922F001024A6120215B
:102C400080F83E10016B012903D0FFF71FFB002025
:102C500008BD002101630168CA6822F01002CA6041
:102C600001680A68D20602D50A6849680091818D18
:102C7000FFF7F0F8EBE7000070B504460068016963
:102C8000E26821F4405111430161A16820690143C8
:102C9000606901432068C26841F20C639A430A43A9
:102CA000C26020684169A26921F440711143416109
:102CB0001E492068884202D1FEF7E6FE01E0FEF7D9
:102CC000D3FE00EBC00101EB0011606864228000BC
:102CD000B1FBF0F3B3FBF2F36FF018067343B1FBF3
:102CE000F0F5B1FBF0F605EB8305322303EB051598
:102CF000B5FBF2F5B6FBF2F605F0F00505EB0615AF
:102D0000B1FBF0F6B1FBF0F0B0FBF2F06FF01801A0
:102D1000484306EB800003EB0010B0FBF2F02168A3
:102D200000F00F002844886070BD000000380140AA
:102D30002DE9F0411E46174688460446069D1CE0D4
:102D4000681C1AD025B1FEF721F8801BA84214D9BF
:102D50002068C16821F4D071C1602068416921F008
:102D600001014161202084F83D0084F83E000020EC
:102D700084F83C000320BDE8F0812068016838EA4F
:102D8000010004D00020B842DAD00020F3E701208F
:102D9000F9E700000148FFF75FB80000FC030020DE
:102DA000D0F8B802002101770846704770B5054693
:102DB000D0F8B842D5F8BC226178D2682078904724
:102DC0000A2322460321284600F098FB002070BD0C
:102DD00070B50446812100F08FFA002503212046BA
:102DE000E56200F089FAC4F89451D4F8B80248B109
:102DF000D4F8BC0204F52E7480688047206800F087
:102E0000E8FD2560002070BD10B5D0F8B842A1697A
:102E1000012908D1D0F8BC0223786178C26818462D
:102E200090470020A061002010BD00000A21018011
:102E30000048704724030020292101800048704782
:102E4000940200202921018000487047C002002020
:102E50002921018000487047EC02002070B504462B
:102E6000002640230322812100F03CFB01250322A0
:102E7000402311462046E56200F034FB2020C4F8D0
:102E8000945100F0A7FDC4F8B80270B105460020C7
:102E90002877D4F8BC02406880470A232A460321D9
:102EA000204600F02BFB304670BD0126FBE70246B2
:102EB0000220002902D00020C2F8BC12704710B5D1
:102EC000134690F89C42D0F8B822032C09D1147F05
:102ED0000CB1012010BD012414770A46812100F0B5
:102EE000A8FB002010BD0000F8B50022D0F8B832D1
:102EF000ADF800200D781646144615F0600522D076
:102F0000202D58D14A78921E0A2A54D2DFE802F0C6
:102F100010085353535353140C058878D8604DE070
:102F2000012203F10C0137E04888000A186145E0EE
:102F3000012203F110012FE001229A61CA8819468B
:102F400000F066F83AE04D7835B1062D0BD00A2D29
:102F500025D00B2D2FD12AE090F89C22032A2AD1CC
:102F60000222694618E04B882225B5EB132F09D1C0
:102F7000CA88B2F5EA7F01D340F2D312D0F8BC126E
:102F80000E6808E02125B5EB132F04D1CA880E4E38
:102F9000092A00D90922314600F054F80EE090F8D1
:102FA0009C22032A07D1012203F11401F4E790F8CF
:102FB0009C22032A04D000F020F802242046F8BD09
:102FC00088785861FAE700001803002010B5D0F89F
:102FD000B42252689047002010BD134610B50A462F
:102FE000002100F08BFA002010BD134610B50A46F0
:102FF000002100F01EFB002010BD10B5044680210A
:1030000000F0FCFA2046BDE81040002100F0F6BABE
:1030100010B50323C0F85C21C0F89432C0F86021D9
:1030200013460A46002100F069FA002010BD10B5D1
:1030300005210023C0F894121A46194600F05EFAE2
:10304000002010BD10B50223C261C0F894320262A4
:1030500013460A46002100F0ECFA002010BD10B51E
:1030600004210023C0F894121A46194600F0E1FA30
:10307000002010BD10B50A46024903A000F0EEF88A
:10308000004810BD48070020437573746F6D2048D9
:10309000494420436F6E6669670000001220088073
:1030A000004870473400002010B50A46024903A0CA
:1030B00000F0D4F8004810BD480700204375737431
:1030C0006F6D2048494420496E746572666163657E
:1030D00000000000042008800048704730000020F5
:1030E00010B50A46024903A000F0B8F8004810BD28
:1030F0004807002053544D6963726F656C656374B3
:10310000726F6E696373000010B50A46024903A02E
:1031100000F0A4F8004810BD4807002053544D3378
:103120003220437573746F6D2048756D616E206930
:103130006E746572666163650000000010B51A2048
:1031400008800A480168001D0468001D006808180E
:1031500009D008220649FFF7F4F805490422103186
:103160002046FFF7EEF80248801E10BDE8F7FF1F6B
:103170004A000020F8B504460020ADF80000488859
:103180000D46010A082948D2DFE801F04704091773
:1031900047473D45D4F8B012207C0A6819E0207CEE
:1031A00002260028D4F8B40205D0C16A68468847D0
:1031B000014646703EE0816AF8E7C0B206282CD28C
:1031C000DFE800F0030B1115191DD4F8B0024268B6
:1031D00006E06946904701462CE0D4F8B0028268C8
:1031E000DAB1207CF5E7D4F8B002C268F8E7D4F889
:1031F000B0020269F4E7D4F8B0024269F0E7D4F80B
:10320000B0028269ECE7207C38B9D4F8B402416B93
:1032100068468847DFE7207C20B129462046FFF733
:10322000ECFEF8BDD4F8B402016B6846884701464D
:1032300007204870BDF8000048B1EA8852B18242C8
:1032400000D90246ADF800202046FFF7FBFEE888D3
:103250000028E6D12046FFF702FFF8BD70B5002335
:1032600000281ED00446002502E06D1CEDB2641C4F
:103270002678002EF9D1022404EB4504148012783C
:10328000CA545B1C0322CA5400245B1C06E0CA54C7
:103290005B1CDAB28C54521CD3B2401C0278002A58
:1032A000F5D170BD01004FF0000004D0012901D01C
:1032B000022901D0022070470120704710B580B16B
:1032C000D0F8B43213B10023C0F8B43209B1C0F859
:1032D000B012012180F89C12027000F0BBF80020AF
:1032E00010BD022010BD10B5D0F8C002FDF744FE9D
:1032F000BDE81040FFF7D6BF10B5D0F8C002FDF70B
:1033000015FEBDE81040FFF7CDBF2DE9F04117468F
:10331000044651B1D4F8B40242691AB194F89C023F
:10332000032851D00220BDE8F081D4F89432002562
:1033300004F11400022B03D0042B3AD0C3B33CE0B9
:10334000D0E903639E4207D9F11AC1608AB23946B7
:103350002046FFF74AFE12E08068B0FBF3F103FB62
:10336000110199B9984211D3D4F8981288420DD21C
:10337000002211462046FFF738FEC4F89852002379
:103380001A461946204600F0B9F816E0D4F8B402FF
:10339000C16829B194F89C02032801D120468847CE
:1033A0008021204600F02AF92046FFF740FE04E085
:1033B000FFE78021204600F021F994F8A0020128BF
:1033C00004D184F8A05201E0204690470020AAE7EB
:1033D00070B51546044649B1D4F8B40282691AB1F1
:1033E00094F89C02032830D0022070BDD4F89412C7
:1033F00004F5AA70032902D005291ED027E0D0E9E0
:1034000003318B420BD95B1AC3600846834200D359
:1034100003469AB229462046FFF7DFFD17E0D4F8AD
:10342000B402016929B194F89C02032801D1204615
:1034300088472046FFF713FE09E000200146C4F844
:103440009402204600F0DAF801E020469047002080
:1034500070BD000010B5044618481949C0F8E8428C
:10346000C4F8C0020160082141600221816000218E
:103470008161C1610162FEF7FBF808B1FCF7AFFFA3
:103480000022D4F8C0021823114604F53074FDF769
:103490001BFD5823002280212068FDF715FD98238D
:1034A000002281212068FDF70FFDD823002203218F
:1034B0002068FDF709FD002010BD00006C09002008
:1034C000005C00400A0601F07F01D0F8C00201EB69
:1034D000810100EBC10002D590F82A00704790F8F6
:1034E0006A01704710B51C461346D0F8C002224648
:1034F000FDF778FFBDE81040FFF7D4BE10B5D0F857
:10350000C002FDF79FFFBDE81040FFF7CBBE70B5CE
:103510000022044640231146FFF7E4FF4026012520
:10352000C4F864613346002280212046C4F8585113
:10353000FFF7D8FF6662A56184F89C520020C4F8AA
:1035400094026060C4F8A402D4F8B80228B1D4F898
:10355000B4020021426820469047002070BD90F8D8
:103560009C12042903D190F89D1280F89C1200202F
:10357000704710B590F89C12032904D1D0F8B4120A
:10358000C96901B18847002010BD0174002070474F
:1035900010B5D0F8C002FEF710F9BDE81040FFF7F3
:1035A00081BE70B5044600F52A70054600F04AF861
:1035B0000120C4F89402B4F8AE02C4F8980294F85A
:1035C000A82212F01F000AD001280DD0022810D026
:1035D00002F08001204600F011F8002070BD29465D
:1035E000204600F09EF8F8E72946204600F0CAF988
:1035F000F3E72946204600F01DF9EEE710B5D0F8B4
:10360000C002FDF738FFBDE81040FFF74BBE10B514
:10361000D0F8C002FEF7ECF8BDE81040FFF742BE5C
:1036200090F89C1280F89D12042180F89C120020D2
:10363000704710B5D0F8C002FDF756FFBDE8104046
:10364000FFF730BE0A7802704A7842708A78CB78E9
:1036500002EB032242800A794B7902EB032282803B
:103660008A79C97902EB0121C180704702460020A6
:1036700011B1C2F8B41270470220704710B5D0F8EB
:10368000B42202241AB11268904700B900242046DF
:1036900010BD000070B50E461E4D89780446297095
:1036A000012931D894F89C0202280BD003280FD0AE
:1036B00031462046FFF7A1FC29782046BDE870403E
:1036C000FFF784BCD9B10320616084F89C0209E053
:1036D00071B16068884212D0C1B22046FFF776FC13
:1036E000297861602046FFF7C9FF02280CD006E068
:1036F000022084F89C0220466160FFF767FC2046A8
:10370000BDE87040FFF7ABBC31462046BDE87040D5
:10371000FFF773BC5802002010B5FFF778FF0020B8
:1037200010BD2DE9F0410A78002712F0600208D0A0
:10373000202A01D0402A70D1D0F8B4229268904754
:103740006DE04A78002301260A2A66D2DFE802F0FB
:10375000405D6557650805652C29FFF70BFD5EE0A8
:1037600004468888D8B9C888C8B94888802816D23D
:1037700000F07F0594F89C02032810D084F89E5234
:1037800029462046FFF704FF2046FFF768FC1DB1DD
:10379000022084F89C0242E084F89C623FE02046CC
:1037A0003BE0FFF777FF3AE0CA88012A35D190F86D
:1037B0009C22012A04D0022A02D0032A2DD104E03F
:1037C000012200F10801836016E00122011D13E0CF
:1037D00090F89C22012A03D0022A01D0032A1CD18E
:1037E000CA88022A19D1C660D0F8A41209B10321EF
:1037F000C160022200F10C01FFF724FC0FE04988B0
:1038000001290CD1C0F8A46211E090F89C22012A91
:1038100008D0022A06D0032A04D0FFF7EEFB384670
:10382000BDE8F08149880129F9D1C0F8A432FFF739
:1038300016FCF4E72DE9F0410A4604461378002708
:10384000097913F060000AD0202801D0402850D117
:10385000D4F8B40211468368204698478FE0C3F33A
:103860004110012806D05078D0B301282AD003286F
:103870003FD107E0D4F8B402114683682046BDE882
:10388000F041184794F89C02022802D0032872D114
:103890000AE071B380296ED02046FFF7AFFE802189
:1038A0002046FFF7ABFE6AE0508838B931B1802975
:1038B00004D0D08810B92046FFF7A0FE2046FFF7BD
:1038C000CEFB5CE094F89C020228E2D0032852D19F
:1038D000508898BB4806F1D02046FFF704FDEDE77D
:1038E000FFE794F89C020026022803D0032842D167
:1038F00012E040E009B180293DD1080601F07F00C7
:1039000000EB800004EB800101D5143101E001F5EA
:10391000AA7102220E602AE0080601F00F0000EBF7
:10392000800004EB80000AD5806920B301F07F009D
:1039300000EB800004EB800514350BE01FE0D0F8AD
:103940005801C0B101F07F0000EB800004EB80055E
:1039500005F5AA7541B1802906D02046FFF7B2FDD2
:1039600010B10120286000E02E6002222946204686
:10397000FFF768FB03E011462046FFF73EFB3846A1
:10398000BDE8F08170B5054608780C4610F060027D
:1039900003D0202A01D0402A16D195F89C22012A72
:1039A00003D0022A01D0032A0ED1207901280BD896
:1039B000D5F8B402826828469047E188014306D1D1
:1039C0002846FFF74CFB02E02846FFF716FB0020D5
:1039D00070BD704700487047480900202DE9F04746
:1039E0000D78002630F8252048F68F131A40CB7842
:1039F000002B79D0012B7DD0022B02D0032B76D067
:103A0000012648F28004224320F825200A7830F865
:103A1000223048F68F773B401343234320F822306F
:103A20000B7B48F2C00548F6BF724CF2800C4BF697
:103A30008F79E3B30B789A4630F8238048F28013ED
:103A400008EA070848EA030820F82A80B0F850304E
:103A500091F80080034403EB0813B1F8088028F0C4
:103A60000108A3F80084B0F8503091F800800344B6
:103A700003EB0813B1F80A8028F00108A3F80884C2
:103A80004B78002B0B7830F823804FEA48487DD0E4
:103A9000B8F1000F07DA30F8238008EA070848EA8F
:103AA0000C0820F823800B7830F823C000E024E0D5
:103AB0005FEA4C6C07D530F823C00CEA070C4CEADF
:103AC000050C20F823C0CB78012B0B7830F823505D
:103AD00005EA02057ED085F02002224320F823204B
:103AE000AAE001E006E002E042F4007289E742F455
:103AF000C06286E742F4806283E74B7863B3B0F834
:103B0000503091F800C0034403EB0C13B1F806C029
:103B10002CF0010CA3F800C40B7830F823C05FEA46
:103B20004C6C07D530F823C00CEA070C4CEA050CA6
:103B300020F823C0CB78012B06D0097830F821304B
:103B4000134083F020027CE0097830F821301340E4
:103B5000234320F8213077E0B0F850200B7802445E
:103B600002EB0312CB8823F00103A2F80834B0F86B
:103B700050200B78024402EB03120B6902F20C4254
:103B800063B13E2B12D85D08DB0700E02DE000D0CA
:103B90006D1C4FF6FF7303EA85230FE0138823F4AF
:103BA000F8431380138843F4004307E05D09DB0604
:103BB00000D16D1E4FF4004343EA852313800A7839
:103BC00030F822305B0408D530F822303B4043EA1D
:103BD0000C0300E02DE020F82230097830F8212095
:103BE00002EA090282F440522BE0B8F1000F07DA32
:103BF00030F8238008EA070848EA0C0820F82380F8
:103C00000B7830F823C05FEA4C6C07D530F823C03E
:103C10000CEA070C4CEA050C20F823C00B7830F8AE
:103C2000235005EA090585F44055254320F8235023
:103C30008AE7254320F82350097830F8212002EA4A
:103C40000902224320F821203046BDE8F0870020F9
:103C500070472DE9F04391F80C804C780A7848F6CB
:103C6000BF774BF68F7948F2800548F2C0064CF2D8
:103C7000800C48F68F73B8F1000F29D0002C30F873
:103C800022404FEA444448D0002C06DA30F8224063
:103C90001C4044EA0C0420F822400A7830F8224004
:103CA000640605D530F822401C40344320F82240F9
:103CB0000A7830F822401C4044EA0C0420F82240E4
:103CC0000A7830F822303B402B4320F8223019E0AC
:103CD000002C30F822400CD0640605D530F8224084
:103CE0001C40344320F82240097830F821203A4023
:103CF0000DE0640406D530F822401C4044EA0C0470
:103D000020F82240097830F8212002EA09022A43EB
:103D100020F821200020BDE8F083002C06DA30F8DE
:103D200022401C4044EA0C0420F822400A7830F873
:103D30002240640605D530F822401C40344320F868
:103D400022400A7830F822401C40344320F82240B8
:103D50000A7830F8223003EA09032B4320F8223096
:103D6000C2E70020704700207047012120F8401F63
:103D700000210180818001820846704730F8401F91
:103D800021F43F410180002070470020704730B58A
:103D90000A7BA2BB4A7848F68F75002A0A7848F257
:103DA000800430F8223015D05B0607D530F8223079
:103DB0002B4048F2C0052B4320F82230CA78012A54
:103DC0001DD0097830F8212048F6BF731A4082F0E0
:103DD000200211E05B0407D530F822302B404CF272
:103DE00080052B4320F82230097830F821204BF64B
:103DF0008F731A4082F44052224320F82120002081
:103E000030BD10B54A780978002A48F2800330F8AE
:103E1000212005D048F6BF74224082F0100204E051
:103E20004BF68F74224082F480521A4320F82120EE
:103E3000002010BD2DE9F0470C464B78097B064663
:103E40004FF0000948F68F7248F2800A4FF6FF776C
:103E50004FF40048012B09D000296ED0E0780228E9
:103E60006CD001286BD00120BDE8F087A5692069DE
:103E7000854200D90546C9B1E17848F2801302298C
:103E800023D0207836F820101140194326F820104E
:103E9000206A401B2062207836F82010490661789D
:103EA0007ED500297DD001297CD03EE1ABB2E288ED
:103EB0003046616900F0F2FAB6F8500021783044DB
:103EC00000EB0110A0F80454EAE0216A8142207856
:103ED00069D936F820101140194326F82010206ABD
:103EE000401B2062207836F82010490661786CD596
:103EF00011B1012924D02AE0B6F85010314401EB69
:103F0000001000F20C404DB13E2D0FD86908EA07B1
:103F100000D0491C07EA8121018018E0018821F4C2
:103F2000F8410180018841F40041F5E76909EA069A
:103F300000D1491E48EA8121EEE79BE1BAE124E283
:103F4000B6F85020911901EB0010A0F80C546289CA
:103F5000ABB23046616900F0A1FA60692844606143
:103F60002169206A884202D9401B206202E005468E
:103F7000C4F82090607800287CD1B6F850002178F1
:103F8000304400EB011000F204406DB13E2D13D817
:103F90006908EA0700D0491C07EA8121018012E084
:103FA00000E19AE0BAE084E0018821F4F841018060
:103FB000018841F40041F1E76909EA0600D1491E90
:103FC00048EA8121EAE7228965E011B1012921D07F
:103FD00027E0B6F85010314401EB001000F2044025
:103FE0004DB13E2D0FD86908EA0700D0491C07EAF9
:103FF0008121018015E0018821F4F84101800188C8
:1040000041F40041F5E76909EA0600D1491E48EA92
:104010008121EEE7B6F85010314401EB0010A0F812
:1040200004542289ABB23046616900F037FA606906
:10403000284460612169206A884202D9401B2062BD
:1040400002E00546C4F82090607800287DD1B6F8DB
:1040500050002178304400EB011000F20C4055B1C3
:104060003E2D10D86908EA0700D0491C07EA8121D3
:1040700001800FE071E0018821F4F841018001889E
:1040800041F40041F4E76909EA0600D1491E48EA13
:104090008121EDE76289ABB23046616900F0FEF93B
:1040A000207836F8201048F6BF72114081F03001B8
:1040B000BEE136F8202048F68F631A4042EA0A0231
:1040C00026F82020B6F850002278304400EB021089
:1040D0008BB2A0F804342289DEE7B6F850103144E0
:1040E00001EB001000F20C404DB13E2D0FD86908D5
:1040F000EA0700D0491C07EA8121018015E0018808
:1041000021F4F8410180018841F40041F5E7690993
:10411000EA0600D1491E48EA8121EEE7B6F85020B0
:10412000911901EB0010A0F80C546289ABB2304633
:10413000616900F0B3F96069284460612169206A0F
:10414000884203D9401B206203E06EE00546C4F8B4
:104150002090002DA4D0607858B101287FF41FAFC3
:10416000B6F850002178304400EB0110A0F8045458
:1041700029E7B6F850002178304400EB011101F234
:1041800004413E2D06D86808EA0700D0401C07EA23
:10419000802005E06809EA0600D1401E48EA802038
:1041A000088010E711B1012921D027E0B6F850109E
:1041B000314401EB001000F204404DB13E2D0FD808
:1041C0006908EA0700D0491C07EA8121018015E04F
:1041D000018821F4F8410180018841F40041F5E7AC
:1041E0006909EA0600D1491E48EA8121EEE7B6F8DE
:1041F0005010314401EB0010A0F804542289ABB2F6
:104200003046616900F04AF96069284460612169BB
:10421000206A884202D9401B206202E00546C4F8A9
:104220002090002D96D0607858B101287FF421AFFE
:10423000B6F850108819217800EB0110A0F80C5442
:1042400028E7B6F850002178304400EB011101F264
:104250000C413E2D06D86808EA0700D0401C07EA4A
:10426000802005E06809EA0600D1401E48EA802067
:1042700008800FE7A1692069814202D9091AA1616A
:10428000B4E00846C4F81890B0E0088820F4F8407C
:104290000880088840F400400AE03E2874D84208AC
:1042A000C00700D0521C07EA822001E048EA8220C1
:1042B0000880B5E093B9B6F850002178304400EB9F
:1042C0000110216900F2044069B13E2913D84B085E
:1042D000C90700D05B1C07EA83210180607888B1A0
:1042E000012832D03AE0018821F4F84101800188A8
:1042F00041F40041F1E74B09C90600D15B1E48EAD1
:104300008321EAE7B6F850002178304400EB011031
:10431000216900F20C4049B13E290FD84B08C9076A
:1043200000D05B1C07EA8321018017E0018821F49B
:10433000F8410180018841F40041F5E74B09C906C5
:1043400000D15B1E48EA8321EEE7B6F850108819C9
:10435000217800EB0110218AA0F80C14E069A8B3C1
:10436000217836F82100430401D5430603D444F2F2
:104370004003184254D136F82100104048F2C002E0
:10438000104326F821004BE03CE0A16920698142FE
:1043900002D9091AA16102E00846C4F818908BB945
:1043A000B6F850102278314401EB021101F20441B9
:1043B00068B13E2813D84208C30700D0521C07EA50
:1043C00082220A80617889B1012921D028E00A88F7
:1043D00022F4F8420A800A8842F40042F1E74209D6
:1043E000C30600D1521E48EA8222EAE7B6F850100E
:1043F0002278314401EB021101F20C4100287FF4D4
:104400004CAF42E74209C0067FF450AF521E4DE761
:10441000B6F850209119227801EB0211A1F80C0492
:10442000207836F820104BF68F72114081F44051FD
:1044300041EA0A0126F82010002015E50021A0F825
:1044400044104FF43F41A0F8401000207047000096
:104450000148FDF763B800006C090020B0F8440083
:10446000704710B500EB42005C0800F5806008D092
:1044700030F8042B01F8012B120A01F8012B641EFD
:10448000F6D1DA0701D00088087010BD002070470F
:1044900011B98021A0F84C100020704710B55B1CAA
:1044A00000EB42005B0800F5806009D011F8012B99
:1044B00011F8014B42EA042220F8042B5B1EF5D1CF
:1044C00010BDFEE70907090E002804DB00F1E0201B
:1044D00080F80014704700F00F0000F1E02080F831
:1044E000141D704702E008C8121F08C1002AFAD143
:1044F00070477047002001E001C1121F002AFBD164
:1045000070470000FCF750FCFEF770FAFEF732F837
:10451000FEF712F8FEF7BAF8FDF7B4FFFEF77EF8E3
:10452000FEF798F8554C00224FF400512046FCF756
:1045300028FC00224FF480412046FCF722FC002298
:104540004FF400412046FCF71CFC06224C494D4824
:10455000FCF71CF94C48FEF7F1FADFF830914FF008
:10456000000A09F10405464F4FF0FF0B2C1D464E83
:10457000FDF702FF4448FBF708FF44496423042287
:1045800010314348FDF720FE4049642304220C31DA
:104590004048FDF77CFE4FF400513848FCF7E9FB3A
:1045A0003A4A10321078552820D1D078917800EB13
:1045B000012000B2A9F8000052784946012A01D131
:1045C00040420880B1F9000040F68C22C0EBC010D8
:1045D00090FBF2F07F3000B24880FF2802DDA9F89E
:1045E00002B003E0002801DAA9F802A0002037F8A1
:1045F000101009092954401C0428F8DB042040F25B
:104600004C485346DC4637F81010414504D204EBC1
:10461000400121F8083C0BE0A1F57071C1F3CF0116
:1046200004EB4002FF2922F8081C01D922F808CC2B
:10463000401C0528E7DD6878A0F11401E72901D2C4
:1046400099F80200F07428783075E8787075A878C9
:10465000B07520783076A178F175642801D90120F1
:1046600000E000207072642901D9012000E00020E0
:10467000307205490120FEF7F9F979E70010014091
:104680003803002044030020980C00200000002084
:10469000FC030020B8030020000000000000000020
:1046A00001020304060708090000000001020304D8
:1046B000D0460008000000203803000094010008E4
:1046C000E848000838030020900D0000F44400087A
:1046D000C14555494879139D301B08D5041AE1049A
:1046E0001309311B083D041A750C1AA90417040399
:1046F00009041201320216404C05C40514020102DD
:104700002201031A1A03101205010905A1018501EE
:104710000930093109320935151326FF100A7508C9
:104720009504810209391514250735100D463B0102
:104730006514750495018142651F05091901290E4B
:10474000191009017501950E8102061808FF09204C
:1047500075069501131C3F81024F6C330934454A9D
:104760000220381A219536810285050922951F916C
:1047700002850409239524B10285020924081E0834
:1047800009259503081E1009269504081E110927FE
:104790009502082C1206023B1A0F0B1A133B1A162D
:1047A000081C1406056E1B95100B1A151B18092CF6
:1047B000B1020680FF8580131A06131A8113290897
:1047C0001A822E1A05081A83691A01081A8469299F
:1047D000591A856929201A866929081A87691A23AE
:1047E000081E8809289522083C890929793C9009E6
:1047F00030403C910931993C920932081E930933AB
:10480000950C083CA00940403CA10941603CA2092C
:1048100042081EA309439530081EA40944950D08BB
:104820001EA509459515083CA60946081EF009472E
:10483000953F083CF10948083CF20949DE3CA709CC
:104840004A403CA8094B081EA9094C9508083CAAF7
:10485000094E101EAB094F9539083CAC0950081E93
:10486000AD0951950B083CAE0952203CAF0953B835
:104870002CB009545812C0226414203F031B083B7B
:10488000041A4304320182105324F4135D2E1408D9
:10489000D12D1B08E908411A09081AA1101AAD0404
:1048A000C11A45181A39041A51041A2D04140902A0
:1048B0002913010125C03209042B02033A142111E6
:1048C00001100A0122D30107058103402D050705C8
:1048D0000307291A09172C11093C2C697231130A94
:0848E0000632022A400C81009F
:04000005080000ED02
:00000001FF
